{
  "contractName": "Voting",
  "abi": [
    {
      "anonymous": false,
      "inputs": [
        {
          "indexed": true,
          "internalType": "address",
          "name": "previousOwner",
          "type": "address"
        },
        {
          "indexed": true,
          "internalType": "address",
          "name": "newOwner",
          "type": "address"
        }
      ],
      "name": "OwnershipTransferred",
      "type": "event"
    },
    {
      "anonymous": false,
      "inputs": [
        {
          "indexed": false,
          "internalType": "uint256",
          "name": "proposalId",
          "type": "uint256"
        }
      ],
      "name": "ProposalRegistered",
      "type": "event"
    },
    {
      "anonymous": false,
      "inputs": [],
      "name": "ProposalsRegistrationEnded",
      "type": "event"
    },
    {
      "anonymous": false,
      "inputs": [],
      "name": "ProposalsRegistrationStarted",
      "type": "event"
    },
    {
      "anonymous": false,
      "inputs": [
        {
          "indexed": false,
          "internalType": "address",
          "name": "voter",
          "type": "address"
        },
        {
          "indexed": false,
          "internalType": "uint256",
          "name": "proposalId",
          "type": "uint256"
        }
      ],
      "name": "Voted",
      "type": "event"
    },
    {
      "anonymous": false,
      "inputs": [
        {
          "indexed": false,
          "internalType": "address",
          "name": "voterAddress",
          "type": "address"
        }
      ],
      "name": "VoterRegistered",
      "type": "event"
    },
    {
      "anonymous": false,
      "inputs": [],
      "name": "VotesTallied",
      "type": "event"
    },
    {
      "anonymous": false,
      "inputs": [],
      "name": "VotingSessionEnded",
      "type": "event"
    },
    {
      "anonymous": false,
      "inputs": [],
      "name": "VotingSessionStarted",
      "type": "event"
    },
    {
      "anonymous": false,
      "inputs": [
        {
          "indexed": false,
          "internalType": "enum Voting.WorkflowStatus",
          "name": "previousStatus",
          "type": "uint8"
        },
        {
          "indexed": false,
          "internalType": "enum Voting.WorkflowStatus",
          "name": "newStatus",
          "type": "uint8"
        }
      ],
      "name": "WorkflowStatusChange",
      "type": "event"
    },
    {
      "inputs": [],
      "name": "owner",
      "outputs": [
        {
          "internalType": "address",
          "name": "",
          "type": "address"
        }
      ],
      "stateMutability": "view",
      "type": "function",
      "constant": true
    },
    {
      "inputs": [],
      "name": "renounceOwnership",
      "outputs": [],
      "stateMutability": "nonpayable",
      "type": "function"
    },
    {
      "inputs": [],
      "name": "status",
      "outputs": [
        {
          "internalType": "enum Voting.WorkflowStatus",
          "name": "",
          "type": "uint8"
        }
      ],
      "stateMutability": "view",
      "type": "function",
      "constant": true
    },
    {
      "inputs": [
        {
          "internalType": "address",
          "name": "newOwner",
          "type": "address"
        }
      ],
      "name": "transferOwnership",
      "outputs": [],
      "stateMutability": "nonpayable",
      "type": "function"
    },
    {
      "inputs": [
        {
          "internalType": "address",
          "name": "_address",
          "type": "address"
        }
      ],
      "name": "whitelistVoter",
      "outputs": [],
      "stateMutability": "nonpayable",
      "type": "function"
    },
    {
      "inputs": [],
      "name": "startProposalRegistration",
      "outputs": [],
      "stateMutability": "nonpayable",
      "type": "function"
    },
    {
      "inputs": [
        {
          "internalType": "string",
          "name": "description",
          "type": "string"
        }
      ],
      "name": "addProposal",
      "outputs": [],
      "stateMutability": "nonpayable",
      "type": "function"
    },
    {
      "inputs": [],
      "name": "endProposalRegistration",
      "outputs": [],
      "stateMutability": "nonpayable",
      "type": "function"
    },
    {
      "inputs": [],
      "name": "startVotingSession",
      "outputs": [],
      "stateMutability": "nonpayable",
      "type": "function"
    },
    {
      "inputs": [
        {
          "internalType": "uint256",
          "name": "proposalIndex",
          "type": "uint256"
        }
      ],
      "name": "vote",
      "outputs": [],
      "stateMutability": "nonpayable",
      "type": "function"
    },
    {
      "inputs": [],
      "name": "endVotingSession",
      "outputs": [],
      "stateMutability": "nonpayable",
      "type": "function"
    },
    {
      "inputs": [],
      "name": "votesCalculation",
      "outputs": [],
      "stateMutability": "nonpayable",
      "type": "function"
    },
    {
      "inputs": [],
      "name": "getWinnerInfo",
      "outputs": [
        {
          "internalType": "string",
          "name": "description",
          "type": "string"
        }
      ],
      "stateMutability": "view",
      "type": "function",
      "constant": true
    }
  ],
  "bytecode": "0x608060405234801561001057600080fd5b5061003f61002b610044640100000000026401000000009004565b61004c640100000000026401000000009004565b610110565b600033905090565b60008060009054906101000a900473ffffffffffffffffffffffffffffffffffffffff169050816000806101000a81548173ffffffffffffffffffffffffffffffffffffffff021916908373ffffffffffffffffffffffffffffffffffffffff1602179055508173ffffffffffffffffffffffffffffffffffffffff168173ffffffffffffffffffffffffffffffffffffffff167f8be0079c531659141344cd1fd0a4f28419497f9722a3daafe3b4186f6b6457e060405160405180910390a35050565b6120da80620001206000396000f3fe608060405234801561001057600080fd5b50600436106100ec576000357c0100000000000000000000000000000000000000000000000000000000900480638da5cb5b116100a9578063bddf1ce911610083578063bddf1ce9146101ab578063e85a8f2a146101c7578063ee74c678146101d1578063f2fde38b146101db576100ec565b80638da5cb5b14610179578063a7bfab1614610197578063ab8823fc146101a1576100ec565b80630121b93f146100f15780630f7e28381461010d578063200d2ed21461011757806322bb26f7146101355780632fdae3c514610153578063715018a61461016f575b600080fd5b61010b60048036038101906101069190611646565b6101f7565b005b6101156104e0565b005b61011f6106dd565b60405161012c91906118e4565b60405180910390f35b61013d6106f0565b60405161014a9190611928565b60405180910390f35b61016d600480360381019061016891906115fd565b61080d565b005b6101776109ce565b005b610181610a56565b60405161018e91906118a0565b60405180910390f35b61019f610a7f565b005b6101a9610c05565b005b6101c560048036038101906101c091906115d0565b610d8b565b005b6101cf610fc4565b005b6101d961114a565b005b6101f560048036038101906101f091906115d0565b6112cf565b005b6003600581111561020b5761020a611d29565b5b600360009054906101000a900460ff16600581111561022d5761022c611d29565b5b1461026d576040517f08c379a0000000000000000000000000000000000000000000000000000000008152600401610264906119ea565b60405180910390fd5b600460003373ffffffffffffffffffffffffffffffffffffffff1673ffffffffffffffffffffffffffffffffffffffff16815260200190815260200160002060000160009054906101000a900460ff1615156001151514610303576040517f08c379a00000000000000000000000000000000000000000000000000000000081526004016102fa9061196a565b60405180910390fd5b600460003373ffffffffffffffffffffffffffffffffffffffff1673ffffffffffffffffffffffffffffffffffffffff16815260200190815260200160002060000160019054906101000a900460ff1615156000151514610399576040517f08c379a000000000000000000000000000000000000000000000000000000000815260040161039090611aca565b60405180910390fd5b80600460003373ffffffffffffffffffffffffffffffffffffffff1673ffffffffffffffffffffffffffffffffffffffff168152602001908152602001600020600101819055506001600460003373ffffffffffffffffffffffffffffffffffffffff1673ffffffffffffffffffffffffffffffffffffffff16815260200190815260200160002060000160016101000a81548160ff02191690831515021790555060056000828152602001908152602001600020600101600081548092919061046290611cb1565b9190505550600560006001548152602001908152602001600020600101546005600083815260200190815260200160002060010154106104a457806001819055505b7f4d99b957a2bc29a30ebd96a7be8e68fe50a3c701db28a91436490b7d53870ca433826040516104d59291906118bb565b60405180910390a150565b6104e86113c7565b73ffffffffffffffffffffffffffffffffffffffff16610506610a56565b73ffffffffffffffffffffffffffffffffffffffff161461055c576040517f08c379a000000000000000000000000000000000000000000000000000000000815260040161055390611a4a565b60405180910390fd5b600260058111156105705761056f611d29565b5b600360009054906101000a900460ff16600581111561059257610591611d29565b5b14156105d3576040517f08c379a00000000000000000000000000000000000000000000000000000000081526004016105ca90611a0a565b60405180910390fd5b600060058111156105e7576105e6611d29565b5b600360009054906101000a900460ff16600581111561060957610608611d29565b5b14610649576040517f08c379a000000000000000000000000000000000000000000000000000000000815260040161064090611a2a565b60405180910390fd5b6001600360006101000a81548160ff0219169083600581111561066f5761066e611d29565b5b02179055507f344c25562921d075a298d34b6dd1fd00d36ff293974539dfd4a8c625d9f0064c60405160405180910390a17f0a97a4ee45751e2abf3e4fc8946939630b11b371ea8ae39ccdc3056e98f5cc3f600060016040516106d39291906118ff565b60405180910390a1565b600360009054906101000a900460ff1681565b606060058081111561070557610704611d29565b5b600360009054906101000a900460ff16600581111561072757610726611d29565b5b14610767576040517f08c379a000000000000000000000000000000000000000000000000000000000815260040161075e906119aa565b60405180910390fd5b600560006001548152602001908152602001600020600001805461078a90611c4e565b80601f01602080910402602001604051908101604052809291908181526020018280546107b690611c4e565b80156108035780601f106107d857610100808354040283529160200191610803565b820191906000526020600020905b8154815290600101906020018083116107e657829003601f168201915b5050505050905090565b6001600581111561082157610820611d29565b5b600360009054906101000a900460ff16600581111561084357610842611d29565b5b14610883576040517f08c379a000000000000000000000000000000000000000000000000000000000815260040161087a90611a6a565b60405180910390fd5b60011515600460003373ffffffffffffffffffffffffffffffffffffffff1673ffffffffffffffffffffffffffffffffffffffff16815260200190815260200160002060000160009054906101000a900460ff16151514610919576040517f08c379a00000000000000000000000000000000000000000000000000000000081526004016109109061196a565b60405180910390fd5b604051806040016040528082815260200160008152506005600060025481526020019081526020016000206000820151816000019080519060200190610960929190611493565b50602082015181600101559050506002600081548092919061098190611cb1565b91905055507f92e393e9b54e2f801d3ea4beb0c5e71a21cc34a5d34b77d0fb8a3aa1650dc18f60016002546109b69190611b77565b6040516109c39190611aea565b60405180910390a150565b6109d66113c7565b73ffffffffffffffffffffffffffffffffffffffff166109f4610a56565b73ffffffffffffffffffffffffffffffffffffffff1614610a4a576040517f08c379a0000000000000000000000000000000000000000000000000000000008152600401610a4190611a4a565b60405180910390fd5b610a5460006113cf565b565b60008060009054906101000a900473ffffffffffffffffffffffffffffffffffffffff16905090565b610a876113c7565b73ffffffffffffffffffffffffffffffffffffffff16610aa5610a56565b73ffffffffffffffffffffffffffffffffffffffff1614610afb576040517f08c379a0000000000000000000000000000000000000000000000000000000008152600401610af290611a4a565b60405180910390fd5b60036005811115610b0f57610b0e611d29565b5b600360009054906101000a900460ff166005811115610b3157610b30611d29565b5b14610b71576040517f08c379a0000000000000000000000000000000000000000000000000000000008152600401610b68906119ea565b60405180910390fd5b6004600360006101000a81548160ff02191690836005811115610b9757610b96611d29565b5b02179055507fc379d349a6301baf50fb2f98d829f4ae10b1cdb7c66f4e4d8117302df7b8cd4c60405160405180910390a17f0a97a4ee45751e2abf3e4fc8946939630b11b371ea8ae39ccdc3056e98f5cc3f60036004604051610bfb9291906118ff565b60405180910390a1565b610c0d6113c7565b73ffffffffffffffffffffffffffffffffffffffff16610c2b610a56565b73ffffffffffffffffffffffffffffffffffffffff1614610c81576040517f08c379a0000000000000000000000000000000000000000000000000000000008152600401610c7890611a4a565b60405180910390fd5b60046005811115610c9557610c94611d29565b5b600360009054906101000a900460ff166005811115610cb757610cb6611d29565b5b14610cf7576040517f08c379a0000000000000000000000000000000000000000000000000000000008152600401610cee90611aaa565b60405180910390fd5b6005600360006101000a81548160ff02191690836005811115610d1d57610d1c611d29565b5b02179055507f0e5e95ff8725ab3e7a4b6b59998a4c344c2aa8d1485f5e60cb7f337768e6134760405160405180910390a17f0a97a4ee45751e2abf3e4fc8946939630b11b371ea8ae39ccdc3056e98f5cc3f60046005604051610d819291906118ff565b60405180910390a1565b610d936113c7565b73ffffffffffffffffffffffffffffffffffffffff16610db1610a56565b73ffffffffffffffffffffffffffffffffffffffff1614610e07576040517f08c379a0000000000000000000000000000000000000000000000000000000008152600401610dfe90611a4a565b60405180910390fd5b60006005811115610e1b57610e1a611d29565b5b600360009054906101000a900460ff166005811115610e3d57610e3c611d29565b5b14610e7d576040517f08c379a0000000000000000000000000000000000000000000000000000000008152600401610e749061198a565b60405180910390fd5b60001515600460008373ffffffffffffffffffffffffffffffffffffffff1673ffffffffffffffffffffffffffffffffffffffff16815260200190815260200160002060000160009054906101000a900460ff16151514610f13576040517f08c379a0000000000000000000000000000000000000000000000000000000008152600401610f0a90611a8a565b60405180910390fd5b60405180606001604052806001151581526020016000151581526020016000815250600460008373ffffffffffffffffffffffffffffffffffffffff1673ffffffffffffffffffffffffffffffffffffffff16815260200190815260200160002060008201518160000160006101000a81548160ff02191690831515021790555060208201518160000160016101000a81548160ff0219169083151502179055506040820151816001015590505050565b610fcc6113c7565b73ffffffffffffffffffffffffffffffffffffffff16610fea610a56565b73ffffffffffffffffffffffffffffffffffffffff1614611040576040517f08c379a000000000000000000000000000000000000000000000000000000000815260040161103790611a4a565b60405180910390fd5b6001600581111561105457611053611d29565b5b600360009054906101000a900460ff16600581111561107657611075611d29565b5b146110b6576040517f08c379a00000000000000000000000000000000000000000000000000000000081526004016110ad90611a6a565b60405180910390fd5b6002600360006101000a81548160ff021916908360058111156110dc576110db611d29565b5b02179055507f240cb87b2e4df4c318e72bd714d45a9cad60249e883ff56b1fffd83a4595a8fa60405160405180910390a17f0a97a4ee45751e2abf3e4fc8946939630b11b371ea8ae39ccdc3056e98f5cc3f600160026040516111409291906118ff565b60405180910390a1565b6111526113c7565b73ffffffffffffffffffffffffffffffffffffffff16611170610a56565b73ffffffffffffffffffffffffffffffffffffffff16146111c6576040517f08c379a00000000000000000000000000000000000000000000000000000000081526004016111bd90611a4a565b60405180910390fd5b600260058111156111da576111d9611d29565b5b600360009054906101000a900460ff1660058111156111fc576111fb611d29565b5b1461123c576040517f08c379a0000000000000000000000000000000000000000000000000000000008152600401611233906119ca565b60405180910390fd5b60038060006101000a81548160ff0219169083600581111561126157611260611d29565b5b02179055507f1b8e19a458c1bcd88553332c518cc5c4e2d5793e712ee766d4f1c14f672ef1f560405160405180910390a17f0a97a4ee45751e2abf3e4fc8946939630b11b371ea8ae39ccdc3056e98f5cc3f600260036040516112c59291906118ff565b60405180910390a1565b6112d76113c7565b73ffffffffffffffffffffffffffffffffffffffff166112f5610a56565b73ffffffffffffffffffffffffffffffffffffffff161461134b576040517f08c379a000000000000000000000000000000000000000000000000000000000815260040161134290611a4a565b60405180910390fd5b600073ffffffffffffffffffffffffffffffffffffffff168173ffffffffffffffffffffffffffffffffffffffff1614156113bb576040517f08c379a00000000000000000000000000000000000000000000000000000000081526004016113b29061194a565b60405180910390fd5b6113c4816113cf565b50565b600033905090565b60008060009054906101000a900473ffffffffffffffffffffffffffffffffffffffff169050816000806101000a81548173ffffffffffffffffffffffffffffffffffffffff021916908373ffffffffffffffffffffffffffffffffffffffff1602179055508173ffffffffffffffffffffffffffffffffffffffff168173ffffffffffffffffffffffffffffffffffffffff167f8be0079c531659141344cd1fd0a4f28419497f9722a3daafe3b4186f6b6457e060405160405180910390a35050565b82805461149f90611c4e565b90600052602060002090601f0160209004810192826114c15760008555611508565b82601f106114da57805160ff1916838001178555611508565b82800160010185558215611508579182015b828111156115075782518255916020019190600101906114ec565b5b5090506115159190611519565b5090565b5b8082111561153257600081600090555060010161151a565b5090565b600061154961154484611b2a565b611b05565b90508281526020810184848401111561156557611564611dbb565b5b611570848285611c0c565b509392505050565b60008135905061158781612076565b92915050565b600082601f8301126115a2576115a1611db6565b5b81356115b2848260208601611536565b91505092915050565b6000813590506115ca8161208d565b92915050565b6000602082840312156115e6576115e5611dc5565b5b60006115f484828501611578565b91505092915050565b60006020828403121561161357611612611dc5565b5b600082013567ffffffffffffffff81111561163157611630611dc0565b5b61163d8482850161158d565b91505092915050565b60006020828403121561165c5761165b611dc5565b5b600061166a848285016115bb565b91505092915050565b61167c81611bab565b82525050565b61168b81611bfa565b82525050565b600061169c82611b5b565b6116a68185611b66565b93506116b6818560208601611c1b565b6116bf81611dca565b840191505092915050565b60006116d7602683611b66565b91506116e282611ddb565b604082019050919050565b60006116fa601683611b66565b915061170582611e2a565b602082019050919050565b600061171d601f83611b66565b915061172882611e53565b602082019050919050565b6000611740601583611b66565b915061174b82611e7c565b602082019050919050565b6000611763602283611b66565b915061176e82611ea5565b604082019050919050565b6000611786601d83611b66565b915061179182611ef4565b602082019050919050565b60006117a9601e83611b66565b91506117b482611f1d565b602082019050919050565b60006117cc601f83611b66565b91506117d782611f46565b602082019050919050565b60006117ef602083611b66565b91506117fa82611f6f565b602082019050919050565b6000611812602483611b66565b915061181d82611f98565b604082019050919050565b6000611835601b83611b66565b915061184082611fe7565b602082019050919050565b6000611858601b83611b66565b915061186382612010565b602082019050919050565b600061187b601683611b66565b915061188682612039565b602082019050919050565b61189a81611bf0565b82525050565b60006020820190506118b56000830184611673565b92915050565b60006040820190506118d06000830185611673565b6118dd6020830184611891565b9392505050565b60006020820190506118f96000830184611682565b92915050565b60006040820190506119146000830185611682565b6119216020830184611682565b9392505050565b600060208201905081810360008301526119428184611691565b905092915050565b60006020820190508181036000830152611963816116ca565b9050919050565b60006020820190508181036000830152611983816116ed565b9050919050565b600060208201905081810360008301526119a381611710565b9050919050565b600060208201905081810360008301526119c381611733565b9050919050565b600060208201905081810360008301526119e381611756565b9050919050565b60006020820190508181036000830152611a0381611779565b9050919050565b60006020820190508181036000830152611a238161179c565b9050919050565b60006020820190508181036000830152611a43816117bf565b9050919050565b60006020820190508181036000830152611a63816117e2565b9050919050565b60006020820190508181036000830152611a8381611805565b9050919050565b60006020820190508181036000830152611aa381611828565b9050919050565b60006020820190508181036000830152611ac38161184b565b9050919050565b60006020820190508181036000830152611ae38161186e565b9050919050565b6000602082019050611aff6000830184611891565b92915050565b6000611b0f611b20565b9050611b1b8282611c80565b919050565b6000604051905090565b600067ffffffffffffffff821115611b4557611b44611d87565b5b611b4e82611dca565b9050602081019050919050565b600081519050919050565b600082825260208201905092915050565b6000611b8282611bf0565b9150611b8d83611bf0565b925082821015611ba057611b9f611cfa565b5b828203905092915050565b6000611bb682611bd0565b9050919050565b6000819050611bcb82612062565b919050565b600073ffffffffffffffffffffffffffffffffffffffff82169050919050565b6000819050919050565b6000611c0582611bbd565b9050919050565b82818337600083830152505050565b60005b83811015611c39578082015181840152602081019050611c1e565b83811115611c48576000848401525b50505050565b60006002820490506001821680611c6657607f821691505b60208210811415611c7a57611c79611d58565b5b50919050565b611c8982611dca565b810181811067ffffffffffffffff82111715611ca857611ca7611d87565b5b80604052505050565b6000611cbc82611bf0565b91507fffffffffffffffffffffffffffffffffffffffffffffffffffffffffffffffff821415611cef57611cee611cfa565b5b600182019050919050565b7f4e487b7100000000000000000000000000000000000000000000000000000000600052601160045260246000fd5b7f4e487b7100000000000000000000000000000000000000000000000000000000600052602160045260246000fd5b7f4e487b7100000000000000000000000000000000000000000000000000000000600052602260045260246000fd5b7f4e487b7100000000000000000000000000000000000000000000000000000000600052604160045260246000fd5b600080fd5b600080fd5b600080fd5b600080fd5b6000601f19601f8301169050919050565b7f4f776e61626c653a206e6577206f776e657220697320746865207a65726f206160008201527f6464726573730000000000000000000000000000000000000000000000000000602082015250565b7f596f75277265206e6f742077686974656c697374656400000000000000000000600082015250565b7f57686974656c69737420766f74657273206973206e6f74207374617274656400600082015250565b7f566f74657320617265206e6f742074616c6c6965640000000000000000000000600082015250565b7f50726f706f73616c20726567697374726174696f6e206973206e6f7420656e6460008201527f6564000000000000000000000000000000000000000000000000000000000000602082015250565b7f566f74696e672073657373696f6e206973206e6f742073746172746564000000600082015250565b7f50726f706f73616c20726567697374726174696f6e20697320656e6465640000600082015250565b7f5265676973746572696e6720766f74657273206973206e6f7420656e64656400600082015250565b7f4f776e61626c653a2063616c6c6572206973206e6f7420746865206f776e6572600082015250565b7f50726f706f73616c20726567697374726174696f6e206973206e6f742073746160008201527f7274656400000000000000000000000000000000000000000000000000000000602082015250565b7f4164647265737320616c72656164792077686974656c69737465640000000000600082015250565b7f566f74696e672073657373696f6e206973206e6f7420656e6465640000000000600082015250565b7f596f75206861766520616c726561647920766f74656400000000000000000000600082015250565b6006811061207357612072611d29565b5b50565b61207f81611bab565b811461208a57600080fd5b50565b61209681611bf0565b81146120a157600080fd5b5056fea2646970667358221220f7d851738983a75fe74d8bb59f9f02be02973f93e5fdf83cab5c76dd6ec2017864736f6c63430008070033",
  "immutableReferences": {},
  "source": "// SPDX-License-Identifier: MIT\r\n\r\npragma solidity 0.8.7;\r\nimport \"../node_modules/@openzeppelin/contracts/access/Ownable.sol\";\r\n\r\n//Smart Contract Voting\r\ncontract Voting is Ownable{\r\n\r\n    //Structs\r\n    //Votant\r\n    struct Voter {  \r\n        bool isRegistered;      // Votant enregistr ou non\r\n        bool hasVoted;          // A dj vot ou non\r\n        uint votedProposalId;   // Id de la proposition auquel il  vot\r\n    }\r\n\r\n    //Proposition\r\n    struct Proposal { \r\n        string description;     // Description de la proposition\r\n        uint voteCount;         // Nombre de votes de la proposition\r\n    }\r\n\r\n    //Enums\r\n    //Statut du vote\r\n    enum WorkflowStatus { \r\n        RegisteringVoters,\r\n        ProposalsRegistrationStarted,\r\n        ProposalsRegistrationEnded,\r\n        VotingSessionStarted,\r\n        VotingSessionEnded,\r\n        VotesTallied\r\n    }\r\n\r\n    //uints\r\n    uint private winningProposalId;     //Id de la proposition gagnante\r\n    uint private proposalId;            //Id de la proposition courante\r\n    \r\n    //status\r\n    WorkflowStatus public status;       //Statut du vote\r\n    \r\n    //Events\r\n    event VoterRegistered(address voterAddress);\r\n    event ProposalsRegistrationStarted();\r\n    event ProposalsRegistrationEnded();\r\n    event ProposalRegistered(uint proposalId);\r\n    event VotingSessionStarted();\r\n    event VotingSessionEnded();\r\n    event Voted (address voter, uint proposalId);\r\n    event VotesTallied();\r\n    event WorkflowStatusChange(WorkflowStatus previousStatus, WorkflowStatus newStatus);\r\n\r\n    //Mappings\r\n    mapping(address => Voter) private whitelist;    // Liste blanche de tous les votants\r\n    mapping(uint => Proposal) private proposals;    // Liste de toutes les propositions enregistres\r\n\r\n    //Functions\r\n    /** @dev Ajoute une adresse  la liste blanche\r\n     *  @param _address Adresse  ajouter  la liste blanche\r\n     */\r\n    function whitelistVoter(address _address) public onlyOwner { \r\n        require(status == WorkflowStatus.RegisteringVoters, \"Whitelist voters is not started\");\r\n        require(whitelist[_address].isRegistered == false, \"Address already whitelisted\");\r\n        whitelist[_address] = Voter(true,false,0);\r\n    }\r\n\r\n    /** @dev Dbute la phase d'enregistrement des propositions\r\n     */\r\n    function startProposalRegistration() public onlyOwner {\r\n        require(status != WorkflowStatus.ProposalsRegistrationEnded, \"Proposal registration is ended\");\r\n        require(status == WorkflowStatus.RegisteringVoters, \"Registering voters is not ended\");\r\n        status = WorkflowStatus.ProposalsRegistrationStarted;\r\n        emit ProposalsRegistrationStarted();\r\n        emit WorkflowStatusChange(WorkflowStatus.RegisteringVoters, WorkflowStatus.ProposalsRegistrationStarted);\r\n    }\r\n\r\n    /** @dev Ajoute une proposition  la liste associe\r\n     *  @param description Description de la proposition  ajouter\r\n     */\r\n    function addProposal(string memory description) external {\r\n        require(status == WorkflowStatus.ProposalsRegistrationStarted, \"Proposal registration is not started\");\r\n        require(whitelist[msg.sender].isRegistered == true, \"You're not whitelisted\");\r\n        proposals[proposalId] = Proposal(description,0);\r\n        proposalId++;\r\n        emit ProposalRegistered(proposalId-1);\r\n    }\r\n\r\n    /** @dev Termine la phase d'enregistrement des propositions\r\n     */\r\n    function endProposalRegistration() public onlyOwner {\r\n        require(status == WorkflowStatus.ProposalsRegistrationStarted, \"Proposal registration is not started\");\r\n        status = WorkflowStatus.ProposalsRegistrationEnded;\r\n        emit ProposalsRegistrationEnded();\r\n        emit WorkflowStatusChange(WorkflowStatus.ProposalsRegistrationStarted, WorkflowStatus.ProposalsRegistrationEnded);\r\n    }\r\n\r\n\r\n    /** @dev Dbute la phase de vote\r\n     */\r\n    function startVotingSession() public onlyOwner {\r\n        require(status == WorkflowStatus.ProposalsRegistrationEnded, \"Proposal registration is not ended\");\r\n        status = WorkflowStatus.VotingSessionStarted;\r\n        emit VotingSessionStarted();\r\n        emit WorkflowStatusChange(WorkflowStatus.ProposalsRegistrationEnded, WorkflowStatus.VotingSessionStarted);\r\n    }\r\n\r\n    /** @dev Enregistrement d'un vote\r\n     *  @param proposalIndex ID de la proposition vote\r\n     */\r\n    function vote(uint proposalIndex) external{\r\n        require(status == WorkflowStatus.VotingSessionStarted, \"Voting session is not started\");\r\n        require(true == whitelist[msg.sender].isRegistered,\"You're not whitelisted\");\r\n        require(false == whitelist[msg.sender].hasVoted,\"You have already voted\");\r\n        whitelist[msg.sender].votedProposalId = proposalIndex;\r\n        whitelist[msg.sender].hasVoted = true;\r\n        proposals[proposalIndex].voteCount++;\r\n\r\n        if(proposals[proposalIndex].voteCount >= proposals[winningProposalId].voteCount){\r\n            winningProposalId = proposalIndex;\r\n        }\r\n        emit Voted(msg.sender, proposalIndex);\r\n    }\r\n\r\n    /** @dev Termine la phase de vote\r\n     */\r\n    function endVotingSession() public onlyOwner {\r\n        require(status == WorkflowStatus.VotingSessionStarted, \"Voting session is not started\");\r\n        status = WorkflowStatus.VotingSessionEnded;\r\n        emit VotingSessionEnded();\r\n        emit WorkflowStatusChange(WorkflowStatus.VotingSessionStarted, WorkflowStatus.VotingSessionEnded);\r\n    }\r\n\r\n    /** @dev Calcule le rsultat final (la proposition gagnante)\r\n     */\r\n    function votesCalculation() public onlyOwner {\r\n        require(status == WorkflowStatus.VotingSessionEnded, \"Voting session is not ended\");\r\n        status = WorkflowStatus.VotesTallied;\r\n        emit VotesTallied();\r\n        emit WorkflowStatusChange(WorkflowStatus.VotingSessionEnded, WorkflowStatus.VotesTallied);\r\n    }\r\n\r\n    /** @dev Renvoie les informations de la proposition gagnante\r\n     *  @return description La description de la proposition gagnante\r\n     */\r\n    function getWinnerInfo() public view returns (string memory description){\r\n        require(status == WorkflowStatus.VotesTallied, \"Votes are not tallied\");\r\n        return proposals[winningProposalId].description;\r\n    }\r\n\r\n}",
  "sourcePath": "D:\\Users\\Thomas\\Documents\\GitHub\\Alyra\\voting-react\\contracts\\Voting.sol",
  "compiler": {
    "name": "solc",
    "version": "0.8.7+commit.e28d00a7.Emscripten.clang"
  },
  "schemaVersion": "3.4.3",
  "updatedAt": "2021-09-27T08:55:56.521Z",
  "networkType": "ethereum",
  "devdoc": {
    "kind": "dev",
    "methods": {
      "addProposal(string)": {
        "details": "Ajoute une proposition  la liste associe",
        "params": {
          "description": "Description de la proposition  ajouter"
        }
      },
      "endProposalRegistration()": {
        "details": "Termine la phase d'enregistrement des propositions"
      },
      "endVotingSession()": {
        "details": "Termine la phase de vote"
      },
      "getWinnerInfo()": {
        "details": "Renvoie les informations de la proposition gagnante",
        "returns": {
          "description": "La description de la proposition gagnante"
        }
      },
      "owner()": {
        "details": "Returns the address of the current owner."
      },
      "renounceOwnership()": {
        "details": "Leaves the contract without owner. It will not be possible to call `onlyOwner` functions anymore. Can only be called by the current owner. NOTE: Renouncing ownership will leave the contract without an owner, thereby removing any functionality that is only available to the owner."
      },
      "startProposalRegistration()": {
        "details": "Dbute la phase d'enregistrement des propositions"
      },
      "startVotingSession()": {
        "details": "Dbute la phase de vote"
      },
      "transferOwnership(address)": {
        "details": "Transfers ownership of the contract to a new account (`newOwner`). Can only be called by the current owner."
      },
      "vote(uint256)": {
        "details": "Enregistrement d'un vote",
        "params": {
          "proposalIndex": "ID de la proposition vote"
        }
      },
      "votesCalculation()": {
        "details": "Calcule le rsultat final (la proposition gagnante)"
      },
      "whitelistVoter(address)": {
        "details": "Ajoute une adresse  la liste blanche",
        "params": {
          "_address": "Adresse  ajouter  la liste blanche"
        }
      }
    },
    "version": 1
  },
  "userdoc": {
    "kind": "user",
    "methods": {},
    "version": 1
  }
}