{
  "contractName": "SimpleStorage",
  "abi": [
    {
      "constant": false,
      "inputs": [
        {
          "internalType": "uint256",
          "name": "x",
          "type": "uint256"
        }
      ],
      "name": "set",
      "outputs": [],
      "payable": false,
      "stateMutability": "nonpayable",
      "type": "function"
    },
    {
      "constant": true,
      "inputs": [],
      "name": "get",
      "outputs": [
        {
          "internalType": "uint256",
          "name": "",
          "type": "uint256"
        }
      ],
      "payable": false,
      "stateMutability": "view",
      "type": "function"
    },
    {
      "constant": false,
      "inputs": [],
      "name": "test",
      "outputs": [],
      "payable": false,
      "stateMutability": "nonpayable",
      "type": "function"
    }
  ],
  "bytecode": "0x608060405234801561001057600080fd5b5060da8061001f6000396000f3fe6080604052348015600f57600080fd5b5060043610603c5760003560e01c806360fe47b11460415780636d4ce63c14606c578063f8a8fd6d146088575b600080fd5b606a60048036036020811015605557600080fd5b81019080803590602001909291905050506090565b005b6072609a565b6040518082815260200191505060405180910390f35b608e60a3565b005b8060008190555050565b60008054905090565b56fea265627a7a7231582064a32722fd98647d754ac4ed5bf92fe9e3b05ef6c77a00e5cb00656400af143264736f6c63430005100032",
  "source": "// SPDX-License-Identifier: MIT\r\npragma solidity 0.5.16;\r\n\r\ncontract SimpleStorage {\r\n   uint data;\r\n\r\n   function set(uint x) public {\r\n       data = x;\r\n   }\r\n\r\n   function get() public view returns (uint) {\r\n       return data;\r\n   }\r\n\r\n   function test() public {\r\n       \r\n   }\r\n}",
  "sourcePath": "D:\\Users\\Thomas\\Documents\\GitHub\\Alyra\\simple-storage-truffle\\contracts\\SimpleStorage.sol",
  "compiler": {
    "name": "solc",
    "version": "0.5.16+commit.9c3226ce.Emscripten.clang"
  },
  "schemaVersion": "3.4.3",
  "updatedAt": "2021-09-20T08:14:10.694Z",
  "devdoc": {
    "methods": {}
  },
  "userdoc": {
    "methods": {}
  }
}