{
  "contractName": "SimpleStorage",
  "abi": [
    {
      "constant": false,
      "inputs": [
        {
          "internalType": "uint256",
          "name": "x",
          "type": "uint256"
        }
      ],
      "name": "set",
      "outputs": [],
      "payable": false,
      "stateMutability": "nonpayable",
      "type": "function"
    },
    {
      "constant": true,
      "inputs": [],
      "name": "get",
      "outputs": [
        {
          "internalType": "uint256",
          "name": "",
          "type": "uint256"
        }
      ],
      "payable": false,
      "stateMutability": "view",
      "type": "function"
    }
  ],
  "bytecode": "0x608060405234801561001057600080fd5b5060e38061001f6000396000f3fe6080604052348015600f57600080fd5b5060043610604f576000357c01000000000000000000000000000000000000000000000000000000009004806360fe47b11460545780636d4ce63c14607f575b600080fd5b607d60048036036020811015606857600080fd5b8101908080359060200190929190505050609b565b005b608560a5565b6040518082815260200191505060405180910390f35b8060008190555050565b6000805490509056fea265627a7a723158209a809473b74ec8d84d7c43b0cdc7a17b975f7342cdf49de661b43a6d124687d264736f6c63430005100032",
  "source": "// SPDX-License-Identifier: MIT\r\npragma solidity 0.5.16;\r\n\r\ncontract SimpleStorage {\r\n   uint data;\r\n\r\n   function set(uint x) public {\r\n       data = x;\r\n   }\r\n   \r\n   function get() public view returns (uint) {\r\n       return data;\r\n   }\r\n}",
  "sourcePath": "D:\\Users\\Thomas\\Documents\\GitHub\\Alyra\\deployTestnetTruffle\\contracts\\SimpleStorage.sol",
  "compiler": {
    "name": "solc",
    "version": "0.5.16+commit.9c3226ce.Emscripten.clang"
  },
  "schemaVersion": "3.4.3",
  "updatedAt": "2021-09-20T08:47:17.777Z",
  "devdoc": {
    "methods": {}
  },
  "userdoc": {
    "methods": {}
  }
}